{
  "contractName": "Counter",
  "abi": [
    {
      "constant": true,
      "inputs": [],
      "name": "storedNumber",
      "outputs": [
        {
          "name": "",
          "type": "uint256"
        }
      ],
      "payable": false,
      "stateMutability": "view",
      "type": "function"
    },
    {
      "inputs": [],
      "payable": false,
      "stateMutability": "nonpayable",
      "type": "constructor"
    },
    {
      "constant": false,
      "inputs": [],
      "name": "getNumber",
      "outputs": [
        {
          "name": "",
          "type": "uint256"
        }
      ],
      "payable": false,
      "stateMutability": "nonpayable",
      "type": "function"
    },
    {
      "constant": false,
      "inputs": [],
      "name": "addNumber",
      "outputs": [],
      "payable": false,
      "stateMutability": "nonpayable",
      "type": "function"
    },
    {
      "constant": false,
      "inputs": [],
      "name": "deductNumber",
      "outputs": [],
      "payable": false,
      "stateMutability": "nonpayable",
      "type": "function"
    }
  ],
  "bytecode": "0x608060405234801561001057600080fd5b506000808190555061014d806100276000396000f300608060405260043610610062576000357c0100000000000000000000000000000000000000000000000000000000900463ffffffff16806309ce9ccb1461006757806372fcfd8b14610092578063ba65a523146100a9578063f2c9ecd8146100c0575b600080fd5b34801561007357600080fd5b5061007c6100eb565b6040518082815260200191505060405180910390f35b34801561009e57600080fd5b506100a76100f1565b005b3480156100b557600080fd5b506100be610105565b005b3480156100cc57600080fd5b506100d5610118565b6040518082815260200191505060405180910390f35b60005481565b600080815480929190600190039190505550565b6000808154809291906001019190505550565b600080549050905600a165627a7a72305820112c25b754d9a32c1f6db99537785da3653d9a85b5ae07bef00d9580648c69190029",
  "source": "pragma solidity ^0.4.22;\n\ncontract Counter {\n  uint public storedNumber;\n\n  constructor() public {\n    storedNumber = 0;\n  }\n\n  function getNumber() public returns(uint) {\n    return storedNumber;\n  }\n\n  function addNumber() public {\n    storedNumber++;\n  }\n\n  function deductNumber() public {\n    storedNumber--;\n  }\n}\n",
  "sourcePath": "/Users/corinne/projects/truffle/contracts/Counter.sol",
  "compiler": {
    "name": "solc",
    "version": "0.4.24+commit.e67f0147.Emscripten.clang"
  },
  "schemaVersion": "2.0.1",
  "updatedAt": "2018-09-23T12:07:47.199Z"
}